:1000000012C024C023C022C021C020C01FC01EC0F7
:100010001DC01CC01BC01AC019C018C017C016C014
:1000200015C014C013C011241FBECFE5D4E0DEBF3D
:10003000CDBF10E0A0E6B0E0E4E4F1E002C005903E
:100040000D92A037B107D9F775D07AC0D9CF939A5E
:1000500095E89A95F1F7000092B39F7092BB92B326
:100060008295807F892B82BB939885E88A95F1F7EA
:1000700000000895CF93C82F611102C0929801C06B
:10008000929A8C2F82958F70E2DF8C2FE0DFCF91D8
:10009000089561E0EFDF0895CF93DF93EC0188814D
:1000A000882329F02196F5DF89918111FCCFDF911A
:1000B000CF9108958FE295E70197F1F700C0000016
:1000C00083E0C5DF8FE39FE10197F1F700C00000F7
:1000D00083E0BDDF87EC90E00197F1F700C00000FE
:1000E00083E0B5DF8FEC97E00197F1F700C00000E7
:1000F00082E0ADDF8FEC97E00197F1F700C00000E0
:1001000060E088E2B7DF8FEC97E00197F1F700C07D
:10011000000060E08CE0AEDF8FEC97E00197F1F734
:1001200000C0000060E086E0A5DF08958FEF81BB8E
:1001300012BA0895FBDFBEDF80E690E0ADDFFFCFAF
:04014000F894FFCF61
:1001440053616E69612D50617368736121210000F0
:00000001FF
