:1000000012C019C018C017C016C015C014C013C044
:1000100012C011C010C00FC00EC00DC00CC00BC06C
:100020000AC009C008C011241FBECFE5D4E0DEBF5E
:10003000CDBF06D028C0E4CF18BA88E087BB0895AA
:10004000FBDF19D090E021E0911107C083B58F5FED
:1000500083BD83B58F3F41F402C0913029F483B54D
:10006000815083BD83B5922FEFE4F3EC3197F1F724
:1000700000C00000E9CF12BC8FE685BD14BC13BCE4
:0A00800089B789BF0895F894FFCFF7
:00000001FF
