:1000000012C02CC02BC02AC029C028C027C026C0BF
:1000100025C024C023C022C021C020C01FC01EC0D4
:100020001DC01CC01BC011241FBECFE5D4E0DEBF25
:10003000CDBF10E0A0E6B0E0ECE7F5E002C005902F
:100040000D92AA36B107D9F720E0AAE6B0E001C0C8
:100050001D92A237B207E1F7AFD08EC2D1CF8FB7D2
:10006000F894899AE9ECF3E03197F1F700C00000C9
:100070008998FDEAFA95F1F7000090B38FBF87E405
:1000800093E00197F1F700C0000081E008959FB769
:10009000F894899A25E02A95F1F700008111899852
:1000A0008DEA8A95F1F7000089989FBF0895EF9235
:1000B000FF920F931F93CF93DF93C0E0D0E0EE2425
:1000C000E394F12C082F10E097010C2E02C0220FB0
:1000D000331F0A94E2F7A90140235123241735075F
:1000E00019F481E0D4DF02C080E0D1DF2196C8306E
:1000F000D10551F7DF91CF911F910F91FF90EF90B4
:1001000008959FB7F894899A25E02A95F1F70000A1
:10011000899882E28A95F1F700C080B328E72A9592
:10012000F1F79FBF8695817008951F93CF93DF935A
:10013000C0E0D0E010E0E5DF282F30E00C2E02C058
:10014000220F331F0A94E2F7122B2196C830D105F3
:1001500091F7812FDF91CF911F910895CF937FDF8A
:100160008130D9F48CECA3DF84E4A1DF2FE74FE4E6
:1001700052E1215040405040E1F700C000006FDFE5
:100180008CEC95DF8EEB93DFD0DFC82FCEDF2C2FEA
:1001900030E0A901582BCA0102C080E090E0CF9165
:1001A0000895929582958F7089279F708927089569
:1001B00012BA8FEF81BB0895FBDF2AD196D180E67A
:1001C00090E085D12FE78AE196E021508040904071
:1001D000E1F700C0000071D1CDEC60ED80E02BD1E3
:1001E0002FEF81EE94E0215080409040E1F700C075
:1001F000000011D181ED18D12CD18093710029D14B
:100200008093700026D180936F0023D180936E007D
:1002100020D180936D001DD180936C001AD1809302
:100220006B00FFD0809171009CD180937100809110
:10023000700097D18093700080916F0092D180936D
:100240006F0080916E008DD180936E0080916D0063
:1002500088D180936D0080916C0083D180936C0075
:1002600080916B007ED180936B0060E080E01DD1B7
:1002700080916D008C9F812D1124869586958695A1
:10028000805D10D180916D008C9F912D11249695E9
:1002900096959695990F292F220F220F920F891B61
:1002A000805D00D18EE2FED080916C008C9F812D0C
:1002B0001124869586958695805DF4D080916C009A
:1002C0008C9F912D1124969596959695990F292F8F
:1002D000220F220F920F891B805DE4D08EE2E2D0C4
:1002E00080916B008C9F812D112486958695869533
:1002F000805DD8D080916B008C9F912D11249695B4
:1003000096959695990F292F220F220F920F891BF0
:10031000805DC8D08EE2C6D080916E00805DC2D074
:1003200061E080E0C2D080916F008C9F812D11240C
:10033000869586958695805DB5D080916F008C9F5F
:10034000912D1124969596959695990F292F220F08
:10035000220F920F891B805DA5D08AE3A3D08091E4
:1003600070008C9F812D1124869586958695805DE1
:1003700099D0809170008C9F912D1124969596951F
:100380009695990F292F220F220F920F891B805DBE
:1003900089D08AE387D0809171008C9F812D1124B0
:1003A000869586958695805D7DD0809171008C9F25
:1003B000912D1124969596959695990F292F220F98
:1003C000220F920F891B805D6DD080E26BD0C6DE5C
:1003D000E8DE80936A008C9F812D11248695869596
:1003E0008695805D5FD080916A008C9F912D11244D
:1003F000969596959695990F292F220F220F920F79
:10040000891B805D4FD08AE24DD083E44BD0E5CE8E
:1004100080E280B9089584EA86BF06B607FEFDCF64
:10042000089584E986BF089583B984E886BF06B637
:1004300007FEFDCF0895CF93DF93C82FD62FEBDFB4
:100440008D2FF2DF8C2FF0DF84E986BFDF91CF9113
:10045000089584E886BF06B607FEFDCF83B10895F0
:10046000939A95E89A95F1F7000092B39F7092BB2A
:1004700092B38295807F892B82BB939885E88A9579
:10048000F1F700000895CF93C82F611102C0929830
:1004900001C0929A8C2F82958F70E2DF8C2FE0DF63
:1004A000CF91089561E0EFDF089590E4699F800D9A
:1004B000112460E08068E7DF089560E081E0E3DF19
:1004C00087EB9BE00197F1F700C000000895CF9300
:1004D000DF93EC018881882329F02196E3DF89915D
:1004E0008111FCCFDF91CF9108958FE295E70197BD
:1004F000F1F700C0000083E0B3DF8FE39FE10197D5
:10050000F1F700C0000083E0ABDF87EC90E00197DB
:10051000F1F700C0000083E0A3DF8FEC97E00197C4
:10052000F1F700C0000082E09BDF8FEC97E00197BD
:10053000F1F700C0000060E088E2A5DF8FEC97E0F3
:100540000197F1F700C0000060E08CE09CDF8FECC9
:1005500097E00197F1F700C0000060E086E093DFCC
:100560000895982F92959F70990F292F220F220F8F
:0C057000920F8F70890F0895F894FFCF50
:0A057C0048656C6C6F21212100001E
:00000001FF
