S00F00004C6573735F32352E73726563B8
S113000012C019C018C017C016C015C014C013C040
S113001012C011C010C00FC00EC00DC00CC00BC068
S11300200AC009C008C011241FBECFE5D4E0DEBF5A
S1130030CDBF02D03CC0E4CF87B38C6287BB88B30A
S1130040837D88BB80E58DB91FB8779BFECFC29AAC
S1130050C2982FEF43ED50E3215040405040E1F768
S113006000C000008FEF8FB9C29AC2986FEF83ED82
S113007090E3615080409040E1F700C0000030E020
S113008020E0832F922F8FB9779BFECFC29AC2981C
S11300904FE758E361E0415050406040E1F700C051
S11300A000000196811541E0940769F7EACFF894BE
S10500B0FFCF7C
S9030000FC
