:1000000012C022C021C020C01FC01EC01DC01CC005
:100010001BC01AC019C018C017C016C015C014C024
:1000200013C012C011C011241FBECFEDCDBF10E010
:10003000A0E6B0E0E8E4F4E002C005900D92A4363A
:10004000B107D9F7A0D0FEC1DBCF929A95E89A9577
:10005000F1F7000092B3977892BB92B3880F880FA4
:10006000880F892B82BB929885E88A95F1F700006A
:100070000895CF93C82F611102C0919801C0919A41
:100080008C2F82958F70E1DF8C2FDFDFCF91089569
:1000900061E0EFDF08956295660F660F607C860F62
:1000A00060E08068E6DF089560E081E0E2DF87EBF2
:1000B0009BE00197F1F700C000000895CF93DF9314
:1000C000EC018881882329F02196E2DF8991811152
:1000D000FCCFDF91CF9108958FE295E70197F1F77B
:1000E00000C0000083E0B1DF8FE39FE10197F1F7EB
:1000F00000C0000083E0A9DF87EC90E00197F1F7F2
:1001000000C0000083E0A1DF8FEC97E00197F1F7DA
:1001100000C0000082E099DF8FEC97E00197F1F7D3
:1001200000C0000060E088E2A4DF8FEC97E0019758
:10013000F1F700C0000060E08CE09BDF8FEC97E0FF
:100140000197F1F700C0000060E086E092DF0895BB
:1001500087B3806D87BBBD9888B38F7288BB0895C5
:100160008FB9769A769909C08DB18B618DB98AE184
:100170008A95F1F700C0769BF7CF8FB1089512BA38
:100180008FEF81BB0895CF93DF93CDB7DD27CA50A2
:10019000CDBFDEDFF4DFA0DF87DF60E080E07BDF64
:1001A00083DF60E080E077DF55D0DADF4AE0BE0130
:1001B0006F5F7F4F90E05DD0CE0101967FDF2FEF24
:1001C00089E698E1215080409040E1F700C00000AE
:1001D000E7CFA0E0B0E0EEEEF0E0BDC0EC0168815A
:1001E00079818A819B81611571058105910521F4D1
:1001F00064E279ED8BE597E02DE133EF41E050E0EB
:100200006BD049015A0127EA31E440E050E080D048
:1002100069017A01C501B4012CEE34EF4FEF5FEFB5
:1002200077D0022F132F9A01D701C601800F911F9B
:10023000A21FB31FB7FF03C00197A109B04888836D
:100240009983AA83BB839F77CDB7DD27ECE09AC063
:10025000C0DF089580E690E0BCDF0895A0E0B0E044
:100260008093600090936100A0936200B09363005C
:100270000895BB274A3031F4992322F4BDE29095CA
:1002800081959F4F01C0BB27FB015527AA27880FE7
:10029000991FAA1FA41710F0A41B83955051B9F7FA
:1002A000A05DAA3308F0A95DA193009779F7B11179
:1002B000B1931192CB0100C0DC01FC01672F719159
:1002C0007723E1F7329704C07C916D93708362913C
:1002D000AE17BF07C8F30895052E97FB16F40094D8
:1002E0000FD057FD05D05ED007FC02D046F408C001
:1002F00050954095309521953F4F4F4F5F4F089552
:1003000090958095709561957F4F8F4F9F4F089581
:1003100068940013E894A0E0B0E0E0E9F1E01DC0CB
:10032000EFEFE7F959016A015E23550FEE08FE2C45
:1003300087019B01AC019E23990F660B762FCB01A1
:1003400053D0CDB7DD27EAE01FC02F923F924F92E6
:100350005F926F927F928F929F92AF92BF92CF9255
:10036000DF92EF92FF920F931F93CF93DF93CDB75E
:10037000CA1BCDBFDD2709942A88398848885F8445
:100380006E847D848C849B84AA84B984C884DF8035
:10039000EE80FD800C811B81AA81D981CE0FCDBF5B
:1003A000CA2F0895A1E21A2EAA1BBB1BFD010DC086
:1003B000AA1FBB1FEE1FFF1FA217B307E407F50715
:1003C00020F0A21BB30BE40BF50B661F771F881FF1
:1003D000991F1A9469F760957095809590959B0187
:1003E000AC01BD01CF010895DF93CF939F92A0E4AC
:1003F0009A2E0024D001E001F00116950795F7949C
:10040000E794D794C794B794A79448F41068A20FC0
:10041000B31FC41FD51FE61FF71F081E191E220F8A
:10042000331F441F551F661F771F881F991F9A94FB
:1004300021F79D01AE01BF01C00111249F90CF9112
:08044000DF910895F894FFCF4D
:0404480001000000AF
:00000001FF
