:100000001CC02BC02AC029C028C027C062C025C080
:1000100024C023C022C021C020C01FC01EC01DC0DC
:100020001CC01BC01AC029C02BC02DC02FC031C09E
:1000300033C035C037C039C03BC011241FBECFE527
:10004000D4E0DEBFCDBF20E0A0E6B0E001C01D924D
:10005000A136B207E1F76DD070C0D2CF8FEF87BB6A
:100060008EEF87BBC09A12BA089590E08A3091054E
:1000700008F5FC01ED5EFF4F09948FE382BB089504
:1000800086E082BB08958BE582BB08958FE482BB36
:10009000089586E682BB08958DE682BB08958DE7BC
:1000A00082BB089587E082BB08958FE782BB0895E5
:1000B0008FE682BB08958EB588608EBD89B780615A
:1000C00089BF8AE78BBD82E18ABD8EB584608EBD13
:1000D00008951F920F920FB60F9211242F933F9302
:1000E0004F935F936F937F938F939F93AF93BF9340
:1000F000EF93FF93809160008A3010F010926000BF
:1001000080916000B2DF809160008F5F809360001B
:10011000FF91EF91BF91AF919F918F917F916F91DF
:100120005F914F913F912F910F900FBE0F901F90B5
:0E013000189594DFC0DF7894FFCFF894FFCFCE
:00000001FF
