S012000041544D656761385F33312E7372656308
S113000012C021C020C01FC01EC01DC01CC01BC008
S11300101AC019C0A5C017C016C015C014C013C09B
S113002012C011C010C011241FBECFE5D4E0DEBF42
S1130030CDBF20E0A0E6B0E001C01D92AA36B20711
S1130040E1F7C0D0FBC0DCCF939A95E89A95F1F71D
S1130050000092B39F7092BB92B38295807F892BEC
S113006082BB939885E88A95F1F700000895CF93B1
S1130070C82F611102C0929801C0929A8C2F829568
S11300808F70E2DF8C2FE0DFCF91089561E0EFDF26
S1130090089590E4699F800D112460E08068E7DF93
S11300A0089560E081E0E3DF87EB9BE00197F1F7DF
S11300B000C000000895CF93DF93EC01888188236A
S11300C029F02196E3DF89918111FCCFDF91CF9153
S11300D008958FE295E70197F1F700C0000083E0EF
S11300E0B3DF8FE39FE10197F1F700C0000083E0E5
S11300F0ABDF87EC90E00197F1F700C0000083E0EC
S1130100A3DF8FEC97E00197F1F700C0000082E0D5
S11301109BDF8FEC97E00197F1F700C0000060E0EF
S113012088E2A5DF8FEC97E00197F1F700C00000AB
S113013060E08CE09CDF8FEC97E00197F1F700C062
S1130140000060E086E093DF089512BA8FEF81BB70
S11301500895BC9A87B3837D87BB80EC8DB90895DD
S11301601F920F920FB60F9211242F933F934F9328
S11301705F936F937F938F939F93AF93BF93CF932B
S1130180EF93FF93CFB18DDF60E080E082DF4AE040
S113019060E670E08C2F90E01ED080E690E08BDF6C
S11301A0FF91EF91CF91BF91AF919F918F917F91EB
S11301B06F915F914F913F912F910F900FBE0F90D0
S11301C01F901895C2DF85DFC4DF78946ADF60E092
S11301D080E05FDFFFCFBB274A3031F4992322F45C
S11301E0BDE2909581959F4F01C0BB27FB01552728
S11301F0AA27880F991FAA1FA41710F0A41B839580
S11302005051B9F7A05DAA3308F0A95DA1930097F6
S113021079F7B111B1931192CB0100C0DC01FC015B
S1130220672F71917723E1F7329704C07C916D9326
S113023070836291AE17BF07C8F30895F894FFCF97
S9030000FC
