:100000001CC02BC02AC029C028C027C075C025C06D
:1000100024C023C022C021C020C01FC01EC01DC0DC
:100020001CC01BC01AC029C02BC02DC02FC031C09E
:1000300033C035C037C039C03BC011241FBECFE527
:10004000D4E0DEBFCDBF20E0A0E6B0E001C01D924D
:10005000A436B207E1F78ED0A7C0D2CF8FE087BB1E
:100060008FEF81BB12BAC59A089590E08A3091054E
:1000700008F5FC01ED5EFF4F09948FE382BB089504
:1000800086E082BB08958BE582BB08958FE482BB36
:10009000089586E682BB08958DE682BB08958DE7BC
:1000A00082BB089587E082BB08958FE782BB0895E5
:1000B0008FE682BB08959DEC899F912D1124969522
:1000C00096959695392F330F232F220F220F230F4A
:1000D000821B809362009093630008958EB58860C0
:1000E0008EBD89B7806189BF8AE78BBD82E18ABDF9
:1000F0008EB582608EBD08951F920F920FB60F923B
:1001000011242F933F934F935F936F937F938F931C
:100110009F93AF93BF93EF93FF9380916100811101
:1001200005C0C198C09A809162009FDF80916100F4
:10013000813029F4C098C19A8091630096DF809144
:1001400061008F5F823018F48093610002C01092CA
:100150006100FF91EF91BF91AF919F918F917F913E
:100160006F915F914F913F912F910F900FBE0F9024
:100170001F901895B3DF72DF109260007894109290
:10018000600080E098DF2FEF89E698E12150804001
:100190009040E1F700C00000809160008F5F809385
:0C01A0006000843678F3EBCFF894FFCFBA
:00000001FF
