:100000001FC02EC02DC02CC02BC02AC067C028C066
:1000100027C026C025C024C023C022C021C020C0C4
:100020001FC01EC01DC040C024C026C028C02AC09A
:100030002CC02EC030C032C034C039C03BC03DC01F
:1000400011241FBECFE5D4E0DEBFCDBF20E0A0E687
:10005000B0E001C01D92A536B207E1F71FD15CC127
:10006000CFCF90E08D30910550F5FC01ED5EFF4F54
:10007000099489EF8FB9089584EA8FB9089580EBC8
:100080008FB9089589E98FB9089582E98FB90895E4
:1000900082E88FB9089588EF8FB9089580E88FB905
:1000A000089580E98FB9089580EC8FB908958FEB9A
:1000B0008FB908958FEF8FB9089586EC8FB90895A1
:1000C0008EB588608EBD89B7806189BF8FE08BBD9A
:1000D00082E48ABD8EB582608EBD08951F920F9214
:1000E0000FB60F9211242F933F934F935F936F930B
:1000F0007F938F939F93AF93BF93EF93FF938091E1
:10010000600081110BC080916400ABDF779BFECF54
:100110008EE08FB9779BFECFC29AC2988091600023
:10012000813059F4809163009CDF779BFECF8DE096
:100130008FB9779BFECFC29AC298809160008230BF
:1001400059F4809162008DDF779BFECF8BE08FB9F1
:10015000779BFECFC29AC29880916000833059F499
:10016000809161007EDF779BFECF87E08FB9779B20
:10017000FECFC29AC298809160008F5F843018F4DD
:100180008093600002C010926000FF91EF91BF91D8
:10019000AF919F918F917F916F915F914F913F911F
:1001A0002F910F900FBE0F901F901895AC019C01DE
:1001B000ADECBCECA5D096958795969587959695D0
:1001C00087959C01220F331F880F991F880F991F55
:1001D000880F991F820F931F9A01281B390B2093B8
:1001E00064009A013695279536952795ABE7B4E1DB
:1001F00087D09695879564E6689F9001699F300D3A
:100200001124CA01821B930B9C01ADECBCEC78D08D
:100210009695879596958795969587958093630093
:10022000FA01F695E795F695E795F695E7959F011E
:10023000A5ECB0E265D0929582958F7089279F706A
:10024000892768EE73E0869F9001879F300D969F07
:10025000300D1124421B530B9A0136952795369584
:100260002795ABE7B4E14CD09695879580936200D3
:100270009F01A5ECB0E244D0929582958F708927BA
:100280009F70892780936100089587B38C6287BB34
:1002900088B3837D88BB80E58DB90895F6DF10DFD4
:1002A00078941FB8779BFECF1FB8779BFECFC29A7A
:1002B000C2982FEF84E39CE0215080409040E1F70A
:1002C00000C0000000E010E0C02FD12FCE016EDF93
:1002D0009FEF24E38CE0915020408040E1F700C084
:1002E00000002196C03197E2D90781F72FEF89E608
:1002F00098E1215080409040E1F700C00000E4CF39
:10030000A29FB001B39FC001A39F01D0B29F700D07
:0C031000811D1124911D0895F894FFCF69
:00000001FF
