S00E00005350495F32362E7372656363
S113000012C019C018C017C016C015C014C013C040
S113001012C011C010C00FC00EC00DC00CC00BC068
S11300200AC009C008C011241FBECFE5D4E0DEBF5A
S1130030CDBF02D0AEC0E4CF87B38C6287BB88B398
S1130040837D88BB80E58DB91FB8779BFECFC29AAC
S1130050C2982FEF84E39CE0215080409040E1F768
S113006000C00000F9EFE4EA70EB69E952E942E804
S113007038EF20E890E980ECFFB9779BFECFC29A75
S1130080C298AFEFB9E6C8E1A150B040C040E1F773
S113009000C00000EFB9779BFECFC29AC298AFEFC1
S11300A0B9E6C8E1A150B040C040E1F700C000008B
S11300B07FB9779BFECFC29AC298AFEFB9E6C8E189
S11300C0A150B040C040E1F700C000006FB9779B79
S11300D0FECFC29AC298AFEFB9E6C8E1A150B040D2
S11300E0C040E1F700C000005FB9779BFECFC29A21
S11300F0C298AFEFB9E6C8E1A150B040C040E1F703
S113010000C000004FB9779BFECFC29AC298AFEFF0
S1130110B9E6C8E1A150B040C040E1F700C000001A
S11301203FB9779BFECFC29AC298AFEFB9E6C8E158
S1130130A150B040C040E1F700C000002FB9779B48
S1130140FECFC29AC298AFEFB9E6C8E1A150B04061
S1130150C040E1F700C000009FB9779BFECFC29A70
S1130160C298AFEFB9E6C8E1A150B040C040E1F792
S113017000C000008FB9779BFECFC29AC298AFEF40
S1130180B9E6C8E1A150B040C040E1F700C00000AA
S109019073CFF894FFCFC9
S9030000FC
