S01500006473313330375F627574746F6E2E7372656372
S113000019C028C027C026C025C024C023C022C0D0
S113001021C020C01FC01EC01DC01CC01BC01AC0F0
S113002019C018C017C07EC10EC22BC248C265C217
S113003082C29FC211241FBECFE5D4E0DEBFCDBF74
S113004020E0A0E6B0E001C01D92A736B207E1F7B8
S1130050D6D20EC6D5CF8FB7F894899AE9ECF3E0DF
S11300603197F1F700C000008998FDEAFA95F1F79D
S1130070000090B38FBF87E493E00197F1F700C0CD
S1130080000081E008959FB7F894899A25E02A95A5
S1130090F1F70000811189988DEA8A95F1F7000043
S11300A089989FBF0895EF92FF920F931F93CF9368
S11300B0DF93C0E0D0E0EE24E394F12C082F10E0AD
S11300C097010C2E02C0220F331F0A94E2F7A901F4
S11300D0402351232417350719F481E0D4DF02C0EB
S11300E080E0D1DF2196C830D10551F7DF91CF915F
S11300F01F910F91FF90EF9008959FB7F894899AFC
S113010025E02A95F1F70000899882E28A95F1F7B3
S113011000C080B328E72A95F1F79FBF86958170C8
S113012008951F93CF93DF93C0E0D0E010E0E5DFA4
S1130130282F30E00C2E02C0220F331F0A94E2F75E
S1130140122B2196C830D10591F7812FDF91CF91E1
S11301501F910895CF937FDF8130D9F48CECA3DF16
S113016084E4A1DF2FEF40E752E0215040405040AB
S1130170E1F700C000006FDF8CEC95DF8EEB93DFBE
S1130180D0DFC82FCEDF2C2F30E0A901582BCA01B5
S113019002C080E090E0CF910895929582958F708F
S11301A089279F708927089580E280B9089584EA99
S11301B086BF06B607FEFDCF089584E986BF08957D
S11301C083B984E886BF06B607FEFDCF0895CF93B2
S11301D0DF93C82FD62FEBDF8D2FF2DF8C2FF0DFCC
S11301E084E986BFDF91CF91089584E886BF06B67F
S11301F007FEFDCF83B1089584E886BF06B607FEE7
S1130200FDCF83B10895939A95E89A95F1F700008C
S113021092B39F7092BB92B38295807F892B82BBED
S1130220939885E88A95F1F700000895CF93C82F35
S1130230611102C0929801C0929A8C2F82958F709E
S1130240E2DF8C2FE0DFCF91089561E0EFDF0895C6
S113025090E4699F800D112460E08068E7DF0895D1
S113026060E081E0E3DF87EB9BE00197F1F700C0FA
S1130270000008958FE295E70197F1F700C00000B0
S113028083E0C1DF8FE39FE10197F1F700C0000035
S113029083E0B9DF87EC90E00197F1F700C000003C
S11302A083E0B1DF8FEC97E00197F1F700C0000025
S11302B082E0A9DF8FEC97E00197F1F700C000001E
S11302C060E088E2B3DF8FEC97E00197F1F700C0BC
S11302D0000060E08CE0AADF8FEC97E00197F1F773
S11302E000C0000060E086E0A1DF089512BA8FEF3D
S11302F081BB84B3817F84BB85B38E6085BB089545
S1130300CF93DF93C82FD62F52DF80ED59DF8C2F88
S113031090E0FC013197E730F10508F037C1ED5E5C
S1130320FF4F099484E04CDFD13009F045C080913F
S113033060008230E1F480916300837061F4809105
S113034066008D3120F48F5F74D43ADF1FC181E0E1
S113035070D436DF1BC1809166008C3120F48F5F2E
S113036068D42EDF13C181E064D42ADF0FC18D7FEE
S113037091E0893009F090E0911106C091E0843059
S113038009F090E0992361F0809166008E3120F4A9
S11303908F5F4FD415DFFAC081E04BD411DFF6C074
S11303A0809166008F3120F48F5F43D409DFEEC063
S11303B081E03FD405DFEAC0D111E8C0809160003C
S11303C08230E1F480916300837061F4809166006F
S11303D0823020F081502DD4F3DED8C08DE129D4B1
S11303E0EFDED4C080916600823020F0815021D4A9
S11303F0E7DECCC08CE11DD4E3DEC8C08D7F91E084
S1130400893009F090E0911106C091E0843009F040
S113041090E0992361F080916600823020F0815051
S113042008D4CEDEB3C08EE104D4CADEAFC080915E
S11304306600823020F08150FCD3C2DEA7C08FE179
S1130440F8D3BEDEA3C085E0BBDED13061F4809179
S113045060008C3020F48F5FECD3B2DE97C081E073
S1130460E8D3AEDE93C0D11191C080916000823098
S113047020F08150DED3A4DE89C08CE0DAD3A0DE84
S113048085C086E09DDED13061F4809163008336BF
S113049020F48F5FCED394DE79C081E0CAD390DE9E
S11304A075C0D11173C080916300823020F08150F7
S11304B0C0D386DE6BC083E6BCD382DE67C083E034
S11304C07FDED13061F480916500873020F48F5F46
S11304D0B0D376DE5BC081E0ACD372DE57C0D111FD
S11304E055C080916500823020F08150A2D368DE2F
S11304F04DC087E09ED364DE49C082E061DED13026
S113050061F480916100873120F48F5F92D358DECB
S11305103DC080E08ED354DE39C0D11137C0809104
S11305206100882321F0815084D34ADE2FC087E103
S113053080D346DE2BC081E043DED13061F480916C
S113054062008B3320F48F5F74D33ADE1FC080E0E7
S113055070D336DE1BC0D11119C08091620088238C
S113056021F0815066D32CDE11C08BE362D328DEE8
S11305700DC080E025DED13021F480E05AD320DEA6
S113058005C0D11103C08EE154D31ADE16DEDF910B
S1130590CF910895823079F08330C1F0813009F52C
S11305A080E0999904C08530F0F48F5FFACF8823F6
S11305B0E1F08150F6CF80E09A9904C08530B8F418
S11305C08F5FFACF8823A9F08150F6CF80E09B9902
S11305D004C0853080F48F5FFACF882371F0815096
S11305E0F6CF80E0089581E0089580E0089582E0E8
S11305F0089580E0089583E0089580E0089576DE0C
S1130600D3DD38DE2DDED12CD0E0C12CCDEC6894C6
S1130610882482F80F2EF5E09F2EF02D0F2EF6E0A1
S1130620AF2EF02D0F2EF7E0BF2EF02D60ED80E001
S1130630CEDD2FE788E391E0215080409040E1F740
S113064000C00000B4DD81EDBBDDCFDD809364002C
S1130650CCDD80936200C9DD80936100C6DD8093A8
S11306606500C3DD80936600C0DD80936000C4DD57
S113067080936300A2DD80916400D0D280936400F3
S113068080916200CBD28093620080916100C6D2D7
S11306908093610080916500C1D280936500809150
S11306A06300BCD28093630080916000B7D28093D2
S11306B0600080916600B2D28093660060E080E0C2
S11306C0C7DD81E067DF813011F4DD2301F1D13032
S11306D0D9F0809166008C9F812D11248695869592
S11306E08695805DB2DD809166008C9F912D1124EA
S11306F0969596959695990F292F220F220F920F72
S1130700891B805DA2DD44C0D1100AC002C0CC2484
S1130710C39480E29ADD80E298DDDD24D3941BC08B
S1130720809166008C9F812D1124869586958695EF
S1130730805D8BDD809166008C9F912D11249695B0
S113074096959695990F292F220F220F920F891BA8
S1130750805D7BDDD12C81E01DDF813031F4C1105F
S113076007C0D2E0CC24C39405C0D1E0C12C02C0A0
S1130770D1E0C12C82E00EDF823019F460E081E028
S1130780BFDD83E007DF833019F461E081E0B8DD89
S11307908EE25BDDD230D9F0809160008C9F812D98
S11307A01124869586958695805D4FDD8091600045
S11307B08C9F912D1124969596959695990F292F96
S11307C0220F220F920F891B805D3FDD3EC0D110A6
S11307D007C080E23ADD80E238DDDD24D3941BC01B
S11307E0809160008C9F812D112486958695869535
S11307F0805D2BDD809160008C9F912D1124969556
S113080096959695990F292F220F220F920F891BE7
S1130810805D1BDDD12C81E0BDDE813031F4C1105F
S113082006C0D3E0CC24C39403C0C12C01C0C12CA6
S113083082E0B0DE823011F460E062DD83E0AADEA3
S1130840833019F461E082E05BDD8EE2FEDCD330BC
S1130850F9F082E3FADC80E3F8DC809163008C9F9A
S1130860812D1124869586958695805DEEDC809198
S113087063008C9F912D1124969596959695990FCA
S1130880292F220F220F920F891B805DDEDC46C0C8
S1130890D1100BC080E2D9DC80E2D7DC80E2D5DC69
S11308A080E2D3DCDD24D3941FC082E3CEDC80E37A
S11308B0CCDC809163008C9F812D112486958695D4
S11308C08695805DC2DC809163008C9F912D1124FC
S11308D0969596959695990F292F220F220F920F90
S11308E0891B805DB2DCD12C81E054DE813031F48F
S11308F0C11006C0D82DCC24C39403C0C12C01C0A0
S1130900C12C82E047DE823019F460E083E0F8DC39
S113091083E040DE833011F461E0F2DC80E295DCB8
S1130920D43049F08DE291DC80916500805D8DDCEE
S11309308DE28BDC2FC0D11009C080E286DC80E21E
S113094084DC80E282DCDD24D39409C08DE27DDC8A
S113095080916500805D79DC8DE277DCD12C81E0CB
S113096019DE813031F4C11006C0D92DCC24C394D2
S113097003C0C12C01C0C12C82E00CDE823019F40A
S113098060E0882DBDDC83E005DE833019F461E08E
S1130990882DB6DC61E080E05BDCD530D9F0809155
S11309A061008C9F812D1124869586958695805DA6
S11309B04CDC809161008C9F912D11249695969525
S11309C09695990F292F220F220F920F891B805D74
S11309D03CDC3FC0D11007C080E237DC80E235DC6C
S11309E0DD24D3941BC0809161008C9F812D112440
S11309F0869586958695805D28DC809161008C9F24
S1130A00912D1124969596959695990F292F220F3D
S1130A10220F920F891B805D18DCD12C81E0BADD96
S1130A20813031F4C11006C0DA2DCC24C39403C044
S1130A30C12C01C0C12C82E0ADDD823019F460E02C
S1130A40892D5EDC83E0A6DD833019F461E0892D15
S1130A5057DC8AE3FADBD630D9F0809162008C9FB0
S1130A60812D1124869586958695805DEEDB809197
S1130A7062008C9F912D1124969596959695990FC9
S1130A80292F220F220F920F891B805DDEDB3FC0CE
S1130A90D11007C080E2D9DB80E2D7DBDD24D39418
S1130AA01BC0809162008C9F812D112486958695B0
S1130AB08695805DCADB809162008C9F912D112404
S1130AC0969596959695990F292F220F220F920F9E
S1130AD0891B805DBADBD12C81E05CDD813031F48F
S1130AE0C11006C0DB2DCC24C39403C0C12C01C0AB
S1130AF0C12C82E04FDD823019F460E08A2D00DCE5
S1130B0083E048DD833019F461E08A2DF9DB8AE360
S1130B109CDBD730D9F0809164008C9F812D112407
S1130B20869586958695805D90DB809164008C9F88
S1130B30912D1124969596959695990F292F220F0C
S1130B40220F920F891B805D80DB3FC0D11007C04C
S1130B5080E27BDB80E279DBDD24D3941BC08091CF
S1130B6064008C9F812D1124869586958695805DE1
S1130B706CDB809164008C9F912D11249695969541
S1130B809695990F292F220F220F920F891B805DB2
S1130B905CDBD12C81E0FEDC813031F4C11006C075
S1130BA0D0E0CC24C39403C0C12C01C0C12C82E08A
S1130BB0F1DC823019F460E08B2DA2DB83E0EADC07
S1130BC0833019F461E08B2D9BDB80E23EDBC2DADB
S1130BD0E4DAE82EF12C9701ADECBCEC3DD08C01AD
S1130BE016950795169507951695079580E3800F3A
S1130BF02CDBC801880F991F000F111F000F111F54
S1130C00000F111F080F191FC701801B910B805D76
S1130C101CDB8FED1ADB83E418DB08CD982F92954B
S1130C209F70990F292F220F220F920F8F70890F17
S1130C3008959DEC899F912D1124969596959695EE
S1130C4020E1929FA0011124990F292F220F220F36
S1130C50920F891B842B0895A29FB001B39FC001FA
S1130C60A39F01D0B29F700D811D1124911D089581
S1070C70F894FFCF22
S9030000FC
