S0240000535353535353535353535353535353535353535353535353535F33302E7372656323
S113000012C022C021C020C01FC01EC01DC01CC001
S11300101BC01AC019C018C017C016C015C014C020
S113002013C012C011C011241FBECFEDCDBF10E00C
S1130030A0E6B0E0ECE7F1E002C005900D92A6372F
S1130040B107D9F789D098C0DBCF929A95E89A95F1
S1130050F1F7000092B3977892BB92B3880F880FA0
S1130060880F892B82BB929885E88A95F1F7000066
S11300700895CF93C82F611102C0919801C0919A3D
S11300808C2F82958F70E1DF8C2FDFDFCF91089565
S113009061E0EFDF08956295660F660F607C860F5E
S11300A060E08068E6DF089560E081E0E2DF87EBEE
S11300B09BE00197F1F700C000000895CF93DF9310
S11300C0EC018881882329F02196E2DF899181114E
S11300D0FCCFDF91CF9108958FE295E70197F1F777
S11300E000C0000083E0B1DF8FE39FE10197F1F7E7
S11300F000C0000083E0A9DF87EC90E00197F1F7EE
S113010000C0000083E0A1DF8FEC97E00197F1F7D6
S113011000C0000082E099DF8FEC97E00197F1F7CF
S113012000C0000060E088E2A4DF8FEC97E0019754
S1130130F1F700C0000060E08CE09BDF8FEC97E0FB
S11301400197F1F700C0000060E086E092DF0895B7
S113015012BA8FEF81BB0895FBDFBEDFA5DF60E03D
S113016080E099DF80E690E0A9DF61E080E093DF42
S10F01708BE690E0A3DFFFCFF894FFCFF4
S113017C415454696E79323331330041544D6567BF
S109018C6120384100006F
S9030000FC
