:1000000012C021C020C01FC01EC01DC01CC01BC00C
:100010001AC019C018C017C016C015C014C013C02C
:1000200012C011C010C011241FBECFE5D4E0DEBF46
:10003000CDBF20E0A0E6B0E001C01D92A038B2071D
:10004000E1F725D05CC0DCCF83B984E886BF06B673
:1000500007FEFDCF91B1987F21E030E0983211F496
:1000600020E030E0C901089580E280B9089584EA73
:1000700086BF06B607FEFDCF089584E986BF0895C2
:1000800083B984E886BF06B607FEFDCF089588E0F1
:1000900090E028D0E9DFEBDF81B12DD080EAF0DFFE
:1000A00081B129D080E0ECDF81B125D080E0E8DFAC
:1000B00081B121D0E2DF81B11ED0E0E6F0E080E343
:1000C000808381E3818382E3828383E3838384E388
:1000D0008483EF0100E810E08991B6DFC017D107F3
:1000E000D9F7FFCF90BD89B988E18AB9579A599A53
:1000F0008EE880BD08955D9BFECF8CB90895F8947D
:02010000FFCF2F
:00000001FF
