S01100004C6573736F6E5F31382E73726563D7
S113000012C021C020C01FC01EC01DC01CC01BC008
S11300101AC019C018C017C016C015C014C013C028
S113002012C011C010C011241FBECFE5D4E0DEBF42
S1130030CDBF20E0A0E6B0E001C01D92A036B2071B
S1130040E1F702D090C0DCCF1FD000E012E0C02F57
S1130050D12F77D02197E9F79FEF22E587E09150E0
S113006020408040E1F700C00000C02FD12F72D0A3
S11300702197E9F78FEF96E121E1815090402040EC
S1130080E1F700C00000E3CF84B38F6084BBAB987A
S11300900895A89AA998AA98AB988FE097E2019737
S11300A0F1F700C000000895A89AAB9AA998AA98FD
S11300B08FE097E20197F1F700C000000895AB9A32
S11300C0A898A998AA988FE097E20197F1F700C041
S11300D000000895AB9AAA9AA898A9988FE097E28D
S11300E00197F1F700C000000895AA9AA898A9986A
S11300F0AB988FE097E20197F1F700C000000895F4
S1130100AA9AA99AA898AB988FE097E20197F1F779
S113011000C000000895A99AA898AA98AB988FE007
S113012097E20197F1F700C000000895A89AA99AF0
S1130130AA98AB988FE097E20197F1F700C000000E
S11301400895A7DFB1DFBBDFC5DFCFDFD9DFE3DF92
S1130150EDDF0895EBDFDFDFD3DFC7DFBBDFAFDF2A
S10D0160A3DF97DF0895F894FFCFA2
S9030000FC
